:100000000C941D010C9445010C9445010C94450180
:100010000C9445010C9445010C9445010C94450148
:100020000C9445010C9445010C9479050C944504FD
:100030000C9445010C9445010C9445010C94450128
:100040000C9445010C9445010C9445010C94450118
:100050000C9445010C9445010C9445010C945D01F0
:100060000C9445010C9445010C9445010C944501F8
:100070000C9445010C9445010C9445010C944501E8
:100080000C9445010C9445010C9445010C944501D8
:100090000C9445010C9445010C9445010C944501C8
:1000A0000C9445010C9445010C94450100C18081DC
:1000B000C11201000202000040412336800001010C
:1000C00002000112010002000000404123368000BE
:1000D000010102000141726475696E6F204C4C434E
:1000E0000041726475696E6F204C656F6E61726459
:1000F0006F000403090400000000000000002A2B28
:1001000028000000000000000000000000000000C7
:100110000000000000002C9EB4A0A1A2A434A6A759
:10012000A5AE362D3738271E1F2021222324252651
:10013000B333B62EB7B89F8485868788898A8B8C1F
:100140008D8E8F909192939495969798999A9B9C67
:100150009D2F3130A3AD350405060708090A0B0CA5
:100160000D0E0F101112131415161718191A1B1C47
:100170001DAFB1B0B5000904020001030000000981
:1001800021010100012265000705840340000105EB
:10019000010902A1010901A100850105091901292F
:1001A00003150025019503750181029501750581EF
:1001B0000305010930093109381581257F75089536
:1001C000038106C0C005010906A1018502050719C2
:1001D000E029E71500250175019508810295017553
:1001E000088103950675081500256505071900297E
:1001F000658100C0080B0002020201000904000032
:10020000010202000005240010010524010101047F
:100210002402060524060001070581031000400999
:10022000040100020A000000070502024000000766
:100230000583024000002307150811241FBECFEFDD
:10024000DAE0DEBFCDBF11E0A0E0B1E0E4E7F0E12D
:1002500002C005900D92A832B107D9F721E0A8E2BB
:10026000B1E001C01D92A739B207E1F712E0CAE37D
:10027000D2E004C02297FE010E943408C633D107A1
:10028000C9F70E944A010C9438080C9400000895A4
:10029000089508950E94F2010E94490181E391E0CE
:1002A0000E94CF050E944701C0E0D0E00E944801B3
:1002B0002097E1F30E940000F9CF1F920F920FB632
:1002C0000F9211242F933F938F939F93AF93BF93DC
:1002D0008091290190912A01A0912B01B0912C01CC
:1002E0003091280123E0230F2D3720F40196A11D22
:1002F000B11D05C026E8230F0296A11DB11D209354
:1003000028018093290190932A01A0932B01B09397
:100310002C0180912D0190912E01A0912F01B0917F
:1003200030010196A11DB11D80932D0190932E01E6
:10033000A0932F01B0933001BF91AF919F918F9106
:100340003F912F910F900FBE0F901F9018953FB7C0
:10035000F89480912D0190912E01A0912F01B091E0
:10036000300126B5A89B05C02F3F19F00196A11DAD
:10037000B11D3FBF6627782F892F9A2F620F711DFD
:10038000811D911D42E0660F771F881F991F4A95B6
:10039000D1F70895CF92DF92EF92FF92CF93DF9340
:1003A0006B017C010E94A701EB01C114D104E1049F
:1003B000F10489F00E9448020E94A7016C1B7D0B8A
:1003C000683E734090F381E0C81AD108E108F10853
:1003D000C851DC4FEACFDF91CF91FF90EF90DF90D3
:1003E000CF900895789484B5826084BD84B581608F
:1003F00084BD85B5826085BD85B5816085BDEEE62D
:10040000F0E0808181608083E1E8F0E0108280810B
:1004100082608083808181608083E0E8F0E0808179
:1004200081608083E1E9F0E0808182608083808167
:1004300081608083E0E9F0E0808181608083E1EC8D
:10044000F0E080818460808380818260808380810D
:1004500081608083E3ECF0E0808181608083E0EC68
:10046000F0E0808182608083E2ECF0E08081816056
:100470008083EAE7F0E0808184608083808182600D
:1004800080838081816080838081806880830895FB
:1004900008954091350150913601209133013091FA
:1004A000340142175307B4F49091E8009570E1F3DA
:1004B0009091E80092FD19C08093F1008091350180
:1004C0009091360101968F739927892B19F48EEF3D
:1004D0008093E800809135019091360101969093C8
:1004E00036018093350181E0089580E00895CF9230
:1004F000DF92FF920F931F93CF93DF931F92CDB79D
:10050000DEB7082F162F862F880F8E5F99830E94E3
:10051000490283E00E944902F02EC02E9981D92E13
:100520008C2D8F19811778F4F60184910E9449026D
:10053000082F80E00E9449028023FFEFCF1ADF0AD4
:100540008111EECF01C081E00F90DF91CF911F911B
:100550000F91FF90DF90CF900895615030F020917F
:10056000F100FC0120830196F8CF289884E680935F
:10057000380108952FB7FC012083F89467706093C9
:10058000E9000895CF93DF931F92CDB7DEB7682FB0
:10059000CE0101960E94BA028091F20099819FBF1C
:1005A0000F90DF91CF910895FF920F931F93CF93F8
:1005B000DF9300D0CDB7DEB7F62E8A0190913701D8
:1005C000992311F057FF03C08FEF9FEF2BC0682FC7
:1005D000CE0101967A830E94BA028091F20090E0E7
:1005E000A8017A81801791070CF4AC01EF2DF72F49
:1005F000F40E84E6FE1639F0289880933801909125
:10060000F1009193F7CF4115510521F08091F2004F
:10061000882321F089818FBFCA0104C08BE68093B3
:10062000E800F8CF0F900F90DF91CF911F910F91BD
:10063000FF900895CF93DF931F92CDB7DEB741E0CF
:1006400050E0BE016F5F7F4F0E94D402019719F402
:10065000898190E002C08FEF9FEF0F90DF91CF91E3
:100660000895CF93DF931F92CDB7DEB7682FCE01E9
:1006700001960E94BA029091E800892F807295FF3E
:1006800004C09091F20080E4891B99819FBF0F9074
:10069000DF91CF9108956F927F928F929F92AF9248
:1006A000BF92CF92DF92EF92FF920F931F93CF935F
:1006B000DF931F92CDB7DEB7782E7B01C42EB52E07
:1006C00080913701882369F0042F152F8AEFD82EE7
:1006D000872D8072982E9AE3A92E872D8074882EFC
:1006E00011C08FEF9FEF57C0872D0E943103682EF6
:1006F00081110CC0DA94A9F361E070E080E090E031
:100700000E94CA010115110579F73BC0282F30E07E
:10071000021713070CF4602E672DCE0101960E947C
:10072000BA028091E80085FF29C0262D30E0021B27
:10073000130B992039F06A948FEF6816B1F010927C
:10074000F100F9CFF701862D77FE07C0815058F0F0
:1007500094919093F1003196F9CF815020F09191CE
:100760009093F100FACFE20EF31E8091E80085FF2E
:100770000FC00115110511F481100AC089818FBFC6
:10078000C1CF5D9884E6809339018C2D9B2D03C0E9
:10079000A092E800F3CF0F90DF91CF911F910F91BE
:1007A000FF90EF90DF90CF90BF90AF909F908F9091
:1007B0007F906F9008951092E90010923601109288
:1007C000350190933401809333010895CF92DF92E5
:1007D000FF920F931F93CF93DF9300D0CDB7DEB777
:1007E000F82E8A016B0101151105B1F0F601F7FE33
:1007F00002C0849101C0808149835A830E944902CA
:1008000001501109FFEFCF1ADF0A49815A81811186
:10081000EACF8FEF9FEF01C0CA010F900F90DF91D9
:10082000CF911F910F91FF90DF90CF9008951F936C
:10083000CF93DF931F92CDB7DEB7162F2091E8003C
:1008400022FFFCCF612F79830E94AD028BEF809352
:10085000E800812F7981972F0F90DF91CF911F9121
:100860000895CF93DF931F92CDB7DEB71982CE01E3
:1008700001960E94B507CE0101960E940B06898160
:1008800090E00F90DF91CF9108951F920F920FB6D5
:100890000F921124EF92FF920F931F932F933F9388
:1008A0004F935F936F937F938F939F93AF93BF9378
:1008B000EF93FF93CF93DF93CDB7DEB76297DEBFA1
:1008C000CDBF1092E9008091E80083FFEBC068E0A3
:1008D000CE010A960E94AD0282EF8093E8009A85CD
:1008E00097FF05C08091E80080FFFCCF03C08EEF2A
:1008F0008093E800892F807609F0B9C08B8581113B
:1009000005C01092F1001092F100C5C0282F2D7F74
:10091000213009F4C0C0853049F48091E80080FF9F
:10092000FCCF8C8580688093E300B5C0863009F0E9
:1009300076C02D85E888F988223071F580E090E056
:100940002A8B0E94DB030E94310499E08E010F5F25
:100950001F4FF801392F11923A95E9F799832A89A7
:100960002A8391E09E8390E898879AEF9987209157
:10097000350130913601275F3F4F3C832B838D83B8
:10098000C7010E94DB0349E050E0B80180E00E940B
:10099000E6030E9431047FC0C7012A8B0E94DB035B
:1009A0002A89223241F482E290E00E941606892BC5
:1009B00009F071C074C0213069F488899989089759
:1009C00011F42093320180913201811118C063EC3F
:1009D00070E01AC0233009F062C08C85882391F042
:1009E000823021F460E181EE90E006C0813009F0B0
:1009F00056C06BE085ED90E00E9477024AC061EB43
:100A000070E002C062EF70E06115710509F447C043
:100A1000FB01449150E080E80E94E6033CC087302F
:100A200009F43DC0883021F481E08093F10033C0A7
:100A3000893089F5937099F5EDEAF0E081E021E0E5
:100A400096E38093E9002093EB0034913093EC001F
:100A50009093ED008F5F3196853099F78EE7809304
:100A6000EA001092EA008C858093370114C08889CF
:100A700099890E94DB038E85811105C0CE010A96FB
:100A80000E94C00706C0823051F4CE010A960E942F
:100A90003E06882321F08EEF8093E80003C081E2B8
:100AA0008093EB0062960FB6F894DEBF0FBECDBF09
:100AB000DF91CF91FF91EF91BF91AF919F918F9176
:100AC0007F916F915F914F913F912F911F910F9166
:100AD000FF90EF900F900FBE0F901F90189580938E
:100AE000E9008091F200882319F08AE38093E800FE
:100AF00008951F920F920FB60F9211242F933F93D8
:100B00004F935F936F937F938F939F93AF93BF9315
:100B1000EF93FF938091E1001092E10083FF0FC0FB
:100B20001092E90091E09093EB001092EC0092E3B8
:100B30009093ED001092370198E09093F00082FFBF
:100B40001DC083E00E946F0580913901882339F030
:100B500080913901815080933901882369F0809117
:100B60003801882359F080913801815080933801F1
:100B7000811104C0289A02C05D9AF1CFFF91EF91D4
:100B8000BF91AF919F918F917F916F915F914F91A5
:100B90003F912F910F900FBE0F901F9018951092BC
:100BA000370181E08093D70080EA8093D80082E10A
:100BB00089BD09B400FEFDCF61E070E080E090E007
:100BC0000E94CA0180E98093D8008CE08093E20003
:100BD0001092E000559A209A0895FF920F931F9368
:100BE000CF93DF93EC01F62EE881F9810480F58143
:100BF000E02D09958C01E881F9810680F781E02DCF
:100C00006F2DCE010995C8019927DF91CF911F91D2
:100C10000F91FF900895FC0120812F5F208349E10F
:100C200050E066E771E080E80C94E60345E650E0AA
:100C30006FE871E080E80C94E603EF92FF920F9367
:100C40001F93CF93DF931F92CDB7DEB789838B01BC
:100C50007A0141E050E0BE016F5F7F4F84E00E9467
:100C60004B03A701B80184E40E944B030F90DF916E
:100C7000CF911F910F91FF90EF900895FC0191810A
:100C80008081813A31F481E0913091F0933089F4A0
:100C900011C0813271F49B3021F482818093010173
:100CA00005C09A3031F482818093000181E008957B
:100CB000089580E0089548E050E082E00C941D061D
:100CC000CF93DF93DC01683818F0E8E7E60F25C022
:100CD000E62FF0E067FF11C0E058F10981E090E0F5
:100CE00001C0880FEA95EAF714969C911497982B07
:100CF00014969C931497E0E010C0EA50FF4FE491E3
:100D0000EE2309F440C0E7FF08C014968C911497B5
:100D1000826014968C931497EF7716968C911697A1
:100D20008E1741F117968C9117978E1719F1189617
:100D30008C9118978E17F1F019968C9119978E1740
:100D4000C9F01A968C911A978E17A1F01B968C9168
:100D50001B978E1779F080E090E0ED01C80FD91F46
:100D60002E81211102C0EE8305C0019686309105C7
:100D7000A1F709C0BD016C5F7F4FCD010E945B06EA
:100D800081E090E008C081E090E013969C938E9300
:100D9000129780E090E0DF91CF910895683818F0C5
:100DA000E8E7E60F25C0E62FF0E067FF12C0E05845
:100DB000F10921E030E001C0220FEA95EAF7209521
:100DC000DC0114963C911497322314963C93E0E096
:100DD0000FC0EA50FF4FE491EE2329F1E7FF08C06E
:100DE000DC0114962C9114972D7F14962C93EF7799
:100DF00020E030E0EE2351F0DC01A20FB31F169685
:100E00004C9116974E1302C016961C922F5F3F4FBF
:100E10002630310579F7BC016C5F7F4F0E945B067D
:100E200081E090E0089580E090E00895FC01168252
:100E3000178210861186128613861482BC016C5F9D
:100E40007F4F0C945B061092460110923D01109268
:100E50003C018EE091E090933B0180933A0108952C
:100E6000CF92DF92EF92FF920F931F93CF93DF9376
:100E70006C017A01EB01E60EF71E00E010E0CE15E2
:100E8000DF0561F06991D601ED91FC910190F0814F
:100E9000E02DC6010995080F191FF1CFC801DF9198
:100EA000CF911F910F91FF90EF90DF90CF90089519
:100EB000CF93DF931F92CDB7DEB76983DC01ED914D
:100EC000FC910280F381E02D41E050E0BE016F5FB4
:100ED0007F4F09950F90DF91CF910895CF93DF93C6
:100EE000EC018C859D8597FF05C082E00E941A0366
:100EF0009D878C878C859D85DF91CF91089583E0B8
:100F00000C946F05FC018485958597FD06C082E0F1
:100F10000E94C20290E00196089582E00E94C202FF
:100F200090E00895FC018485958597FD05C02FEF1D
:100F30003FEF35872487089582E00C941A03CF93FE
:100F4000DF93EC0180910901882331F083E00E9456
:100F50004B031816190634F081E090E09B838A83D6
:100F600080E090E0DF91CF910895FC0120812E5F19
:100F7000208342E450E064EF71E080E80C94E603E3
:100F8000FC0181819081913A59F4813209F03CC091
:100F900047E050E062E071E080E00E94E60343C079
:100FA000913291F5803239F467E070E082E091E0AF
:100FB0000E94170406C0823209F035C082818093F6
:100FC00009018091020190910301A0910401B09167
:100FD0000501803B9440A105B105C1F48091090150
:100FE00080FD14C087E797E790930108809300087D
:100FF0002BE088E190E00FB6F894A895809360000C
:101000000FBE209360000FC080E0089588E10FB606
:10101000F89480936000109260000FBEA895109223
:1010200001081092000881E0089510924A01109280
:10103000490188EE93E0A0E0B0E080934B019093EB
:101040004C01A0934D01B0934E018CE191E090933F
:101050004801809347018FEF9FEF90935401809355
:1010600053010895EE0FFF1F0590F491E02D0994B0
:04107000F894FFCF22
:10107400010100E100000000000000000000ED0597
:1010840030076006CE0616070000000058079F07C9
:08109400820792076E077F0737
:00000001FF
